{
  "contractName": "BridgeBsc",
  "abi": [
    {
      "inputs": [
        {
          "internalType": "address",
          "name": "token",
          "type": "address"
        }
      ],
      "stateMutability": "nonpayable",
      "type": "constructor"
    },
    {
      "anonymous": false,
      "inputs": [
        {
          "indexed": false,
          "internalType": "address",
          "name": "from",
          "type": "address"
        },
        {
          "indexed": false,
          "internalType": "address",
          "name": "to",
          "type": "address"
        },
        {
          "indexed": false,
          "internalType": "uint256",
          "name": "amount",
          "type": "uint256"
        },
        {
          "indexed": false,
          "internalType": "uint256",
          "name": "date",
          "type": "uint256"
        },
        {
          "indexed": false,
          "internalType": "uint256",
          "name": "nonce",
          "type": "uint256"
        },
        {
          "indexed": false,
          "internalType": "bytes",
          "name": "signature",
          "type": "bytes"
        },
        {
          "indexed": true,
          "internalType": "enum BridgeBase.Step",
          "name": "step",
          "type": "uint8"
        }
      ],
      "name": "Transfer",
      "type": "event"
    },
    {
      "inputs": [],
      "name": "admin",
      "outputs": [
        {
          "internalType": "address",
          "name": "",
          "type": "address"
        }
      ],
      "stateMutability": "view",
      "type": "function",
      "constant": true
    },
    {
      "inputs": [
        {
          "internalType": "address",
          "name": "to",
          "type": "address"
        },
        {
          "internalType": "uint256",
          "name": "amount",
          "type": "uint256"
        },
        {
          "internalType": "uint256",
          "name": "nonce",
          "type": "uint256"
        },
        {
          "internalType": "bytes",
          "name": "signature",
          "type": "bytes"
        }
      ],
      "name": "burn",
      "outputs": [],
      "stateMutability": "nonpayable",
      "type": "function"
    },
    {
      "inputs": [
        {
          "internalType": "address",
          "name": "from",
          "type": "address"
        },
        {
          "internalType": "address",
          "name": "to",
          "type": "address"
        },
        {
          "internalType": "uint256",
          "name": "amount",
          "type": "uint256"
        },
        {
          "internalType": "uint256",
          "name": "nonce",
          "type": "uint256"
        },
        {
          "internalType": "bytes",
          "name": "signature",
          "type": "bytes"
        }
      ],
      "name": "mint",
      "outputs": [],
      "stateMutability": "nonpayable",
      "type": "function"
    },
    {
      "inputs": [
        {
          "internalType": "address",
          "name": "",
          "type": "address"
        },
        {
          "internalType": "uint256",
          "name": "",
          "type": "uint256"
        }
      ],
      "name": "processedNonces",
      "outputs": [
        {
          "internalType": "bool",
          "name": "",
          "type": "bool"
        }
      ],
      "stateMutability": "view",
      "type": "function",
      "constant": true
    },
    {
      "inputs": [],
      "name": "token",
      "outputs": [
        {
          "internalType": "contract IToken",
          "name": "",
          "type": "address"
        }
      ],
      "stateMutability": "view",
      "type": "function",
      "constant": true
    }
  ],
  "bytecode": "0x608060405234801561001057600080fd5b50604051610f8b380380610f8b833981810160405281019061003291906100d0565b80336000806101000a81548173ffffffffffffffffffffffffffffffffffffffff021916908373ffffffffffffffffffffffffffffffffffffffff16021790555080600160006101000a81548173ffffffffffffffffffffffffffffffffffffffff021916908373ffffffffffffffffffffffffffffffffffffffff1602179055505050610142565b6000815190506100ca8161012b565b92915050565b6000602082840312156100e257600080fd5b60006100f0848285016100bb565b91505092915050565b60006101048261010b565b9050919050565b600073ffffffffffffffffffffffffffffffffffffffff82169050919050565b610134816100f9565b811461013f57600080fd5b50565b610e3a806101516000396000f3fe608060405234801561001057600080fd5b50600436106100575760003560e01c8063525557021461005c5780637cc70240146100785780638a94b05f146100a8578063f851a440146100c4578063fc0c546a146100e2575b600080fd5b6100766004803603810190610071919061080a565b610100565b005b610092600480360381019061008d919061089c565b610415565b60405161009f9190610c06565b60405180910390f35b6100c260048036038101906100bd91906108d8565b610444565b005b6100cc610664565b6040516100d99190610b58565b60405180910390f35b6100ea610688565b6040516100f79190610c66565b60405180910390f35b60006101378787878760405160200161011c9493929190610ae4565b604051602081830303815290604052805190602001206106ae565b90508673ffffffffffffffffffffffffffffffffffffffff1661019e8285858080601f016020809104026020016040519081016040528093929190818152602001838380828437600081840152601f19601f820116905080830192505050505050506106de565b73ffffffffffffffffffffffffffffffffffffffff16146101f4576040517f08c379a00000000000000000000000000000000000000000000000000000000081526004016101eb90610ca1565b60405180910390fd5b60001515600260008973ffffffffffffffffffffffffffffffffffffffff1673ffffffffffffffffffffffffffffffffffffffff168152602001908152602001600020600086815260200190815260200160002060009054906101000a900460ff16151514610298576040517f08c379a000000000000000000000000000000000000000000000000000000000815260040161028f90610c81565b60405180910390fd5b6001600260008973ffffffffffffffffffffffffffffffffffffffff1673ffffffffffffffffffffffffffffffffffffffff168152602001908152602001600020600086815260200190815260200160002060006101000a81548160ff021916908315150217905550600160009054906101000a900473ffffffffffffffffffffffffffffffffffffffff1673ffffffffffffffffffffffffffffffffffffffff166340c10f1987876040518363ffffffff1660e01b815260040161035e929190610bdd565b600060405180830381600087803b15801561037857600080fd5b505af115801561038c573d6000803e3d6000fd5b505050506001808111156103c9577f4e487b7100000000000000000000000000000000000000000000000000000000600052602160045260246000fd5b7fce5a9b86edd3b998c3948a7934c7ecf7dba73c4c5bcf56cf576bca4aa2beeb30888888428989896040516104049796959493929190610b73565b60405180910390a250505050505050565b60026020528160005260406000206020528060005260406000206000915091509054906101000a900460ff1681565b60001515600260003373ffffffffffffffffffffffffffffffffffffffff1673ffffffffffffffffffffffffffffffffffffffff168152602001908152602001600020600085815260200190815260200160002060009054906101000a900460ff161515146104e8576040517f08c379a00000000000000000000000000000000000000000000000000000000081526004016104df90610c81565b60405180910390fd5b6001600260003373ffffffffffffffffffffffffffffffffffffffff1673ffffffffffffffffffffffffffffffffffffffff168152602001908152602001600020600085815260200190815260200160002060006101000a81548160ff021916908315150217905550600160009054906101000a900473ffffffffffffffffffffffffffffffffffffffff1673ffffffffffffffffffffffffffffffffffffffff16639dc29fac33866040518363ffffffff1660e01b81526004016105ae929190610bdd565b600060405180830381600087803b1580156105c857600080fd5b505af11580156105dc573d6000803e3d6000fd5b505050506000600181111561061a577f4e487b7100000000000000000000000000000000000000000000000000000000600052602160045260246000fd5b7fce5a9b86edd3b998c3948a7934c7ecf7dba73c4c5bcf56cf576bca4aa2beeb30338787428888886040516106559796959493929190610b73565b60405180910390a25050505050565b60008054906101000a900473ffffffffffffffffffffffffffffffffffffffff1681565b600160009054906101000a900473ffffffffffffffffffffffffffffffffffffffff1681565b6000816040516020016106c19190610b32565b604051602081830303815290604052805190602001209050919050565b6000806000806106ed85610753565b8093508194508295505050506001868484846040516000815260200160405260405161071c9493929190610c21565b6020604051602081039080840390855afa15801561073e573d6000803e3d6000fd5b50505060206040510351935050505092915050565b6000806000604184511461076657600080fd5b60008060006020870151925060408701519150606087015160001a90508083839550955095505050509193909250565b6000813590506107a581610dd6565b92915050565b60008083601f8401126107bd57600080fd5b8235905067ffffffffffffffff8111156107d657600080fd5b6020830191508360018202830111156107ee57600080fd5b9250929050565b60008135905061080481610ded565b92915050565b60008060008060008060a0878903121561082357600080fd5b600061083189828a01610796565b965050602061084289828a01610796565b955050604061085389828a016107f5565b945050606061086489828a016107f5565b935050608087013567ffffffffffffffff81111561088157600080fd5b61088d89828a016107ab565b92509250509295509295509295565b600080604083850312156108af57600080fd5b60006108bd85828601610796565b92505060206108ce858286016107f5565b9150509250929050565b6000806000806000608086880312156108f057600080fd5b60006108fe88828901610796565b955050602061090f888289016107f5565b9450506040610920888289016107f5565b935050606086013567ffffffffffffffff81111561093d57600080fd5b610949888289016107ab565b92509250509295509295909350565b61096181610cee565b82525050565b61097861097382610cee565b610d80565b82525050565b61098781610d00565b82525050565b61099681610d0c565b82525050565b6109ad6109a882610d0c565b610d92565b82525050565b60006109bf8385610cc1565b93506109cc838584610d71565b6109d583610db8565b840190509392505050565b6109e981610d4d565b82525050565b60006109fc601c83610ce3565b91507f19457468657265756d205369676e6564204d6573736167653a0a3332000000006000830152601c82019050919050565b6000610a3c601a83610cd2565b91507f7472616e7366657220616c72656164792070726f6365737365640000000000006000830152602082019050919050565b6000610a7c600f83610cd2565b91507f77726f6e67207369676e617475726500000000000000000000000000000000006000830152602082019050919050565b610ab881610d36565b82525050565b610acf610aca82610d36565b610dae565b82525050565b610ade81610d40565b82525050565b6000610af08287610967565b601482019150610b008286610967565b601482019150610b108285610abe565b602082019150610b208284610abe565b60208201915081905095945050505050565b6000610b3d826109ef565b9150610b49828461099c565b60208201915081905092915050565b6000602082019050610b6d6000830184610958565b92915050565b600060c082019050610b88600083018a610958565b610b956020830189610958565b610ba26040830188610aaf565b610baf6060830187610aaf565b610bbc6080830186610aaf565b81810360a0830152610bcf8184866109b3565b905098975050505050505050565b6000604082019050610bf26000830185610958565b610bff6020830184610aaf565b9392505050565b6000602082019050610c1b600083018461097e565b92915050565b6000608082019050610c36600083018761098d565b610c436020830186610ad5565b610c50604083018561098d565b610c5d606083018461098d565b95945050505050565b6000602082019050610c7b60008301846109e0565b92915050565b60006020820190508181036000830152610c9a81610a2f565b9050919050565b60006020820190508181036000830152610cba81610a6f565b9050919050565b600082825260208201905092915050565b600082825260208201905092915050565b600081905092915050565b6000610cf982610d16565b9050919050565b60008115159050919050565b6000819050919050565b600073ffffffffffffffffffffffffffffffffffffffff82169050919050565b6000819050919050565b600060ff82169050919050565b6000610d5882610d5f565b9050919050565b6000610d6a82610d16565b9050919050565b82818337600083830152505050565b6000610d8b82610d9c565b9050919050565b6000819050919050565b6000610da782610dc9565b9050919050565b6000819050919050565b6000601f19601f8301169050919050565b60008160601b9050919050565b610ddf81610cee565b8114610dea57600080fd5b50565b610df681610d36565b8114610e0157600080fd5b5056fea264697066735822122044b9c9354a84f8ae0f077072bbc2dd781ae504f9c0893a512d08b05d6848c95464736f6c63430008000033",
  "immutableReferences": {},
  "source": "// SPDX-License-Identifier: MIT\npragma solidity ^0.8.0;\n\nimport './BridgeBase.sol';\n\ncontract BridgeBsc is BridgeBase {\n  constructor(address token) BridgeBase(token) {}\n}\n",
  "sourcePath": "C:\\Users\\Z210\\Desktop\\web3\\bridge-swap\\contracts\\BridgeBsc.sol",
  "compiler": {
    "name": "solc",
    "version": "0.8.0+commit.c7dfd78e.Emscripten.clang"
  },
  "schemaVersion": "3.4.3",
  "updatedAt": "2021-12-29T01:27:00.215Z",
  "networkType": "ethereum",
  "devdoc": {
    "kind": "dev",
    "methods": {},
    "version": 1
  },
  "userdoc": {
    "kind": "user",
    "methods": {},
    "version": 1
  }
}